{
  "contractName": "Voting",
  "abi": [
    {
      "constant": true,
      "inputs": [],
      "name": "endTime",
      "outputs": [
        {
          "name": "",
          "type": "uint256"
        }
      ],
      "payable": false,
      "stateMutability": "view",
      "type": "function"
    },
    {
      "constant": true,
      "inputs": [],
      "name": "positiveVotes",
      "outputs": [
        {
          "name": "",
          "type": "uint256"
        }
      ],
      "payable": false,
      "stateMutability": "view",
      "type": "function"
    },
    {
      "constant": true,
      "inputs": [],
      "name": "negativeVotes",
      "outputs": [
        {
          "name": "",
          "type": "uint256"
        }
      ],
      "payable": false,
      "stateMutability": "view",
      "type": "function"
    },
    {
      "constant": true,
      "inputs": [],
      "name": "raiseTapVoting",
      "outputs": [
        {
          "name": "",
          "type": "bool"
        }
      ],
      "payable": false,
      "stateMutability": "view",
      "type": "function"
    },
    {
      "constant": true,
      "inputs": [],
      "name": "startTime",
      "outputs": [
        {
          "name": "",
          "type": "uint256"
        }
      ],
      "payable": false,
      "stateMutability": "view",
      "type": "function"
    },
    {
      "constant": true,
      "inputs": [
        {
          "name": "",
          "type": "uint256"
        }
      ],
      "name": "allVoters",
      "outputs": [
        {
          "name": "",
          "type": "address"
        }
      ],
      "payable": false,
      "stateMutability": "view",
      "type": "function"
    },
    {
      "constant": true,
      "inputs": [],
      "name": "tokenAddress",
      "outputs": [
        {
          "name": "",
          "type": "address"
        }
      ],
      "payable": false,
      "stateMutability": "view",
      "type": "function"
    },
    {
      "inputs": [
        {
          "name": "_tokenAddress",
          "type": "address"
        },
        {
          "name": "_endTime",
          "type": "uint256"
        },
        {
          "name": "_votingType",
          "type": "bool"
        },
        {
          "name": "_crowdsale",
          "type": "address"
        }
      ],
      "payable": false,
      "stateMutability": "nonpayable",
      "type": "constructor"
    },
    {
      "anonymous": false,
      "inputs": [
        {
          "indexed": false,
          "name": "_vote",
          "type": "bool"
        },
        {
          "indexed": false,
          "name": "_tokens",
          "type": "uint256"
        }
      ],
      "name": "VoteAdded",
      "type": "event"
    },
    {
      "constant": true,
      "inputs": [
        {
          "name": "voterAddress",
          "type": "address"
        }
      ],
      "name": "getVoter",
      "outputs": [
        {
          "name": "",
          "type": "bool"
        },
        {
          "name": "",
          "type": "uint256"
        },
        {
          "name": "",
          "type": "uint256"
        },
        {
          "name": "",
          "type": "bool"
        }
      ],
      "payable": false,
      "stateMutability": "view",
      "type": "function"
    },
    {
      "constant": true,
      "inputs": [],
      "name": "test",
      "outputs": [
        {
          "name": "",
          "type": "address"
        },
        {
          "name": "",
          "type": "address"
        }
      ],
      "payable": false,
      "stateMutability": "view",
      "type": "function"
    },
    {
      "constant": false,
      "inputs": [
        {
          "name": "vote",
          "type": "bool"
        }
      ],
      "name": "addVote",
      "outputs": [],
      "payable": false,
      "stateMutability": "nonpayable",
      "type": "function"
    },
    {
      "constant": false,
      "inputs": [],
      "name": "returnTokens",
      "outputs": [],
      "payable": false,
      "stateMutability": "nonpayable",
      "type": "function"
    },
    {
      "constant": true,
      "inputs": [],
      "name": "getVotingResults",
      "outputs": [
        {
          "name": "",
          "type": "bool"
        }
      ],
      "payable": false,
      "stateMutability": "view",
      "type": "function"
    },
    {
      "constant": true,
      "inputs": [],
      "name": "votingIsActive",
      "outputs": [
        {
          "name": "",
          "type": "bool"
        }
      ],
      "payable": false,
      "stateMutability": "view",
      "type": "function"
    }
  ],
  "bytecode": "0x6080604052600060015560006002554260035534801561001e57600080fd5b50604051608080610f348339810180604052608081101561003e57600080fd5b810190808051906020019092919080519060200190929190805190602001909291908051906020019092919050505083600560006101000a81548173ffffffffffffffffffffffffffffffffffffffff021916908373ffffffffffffffffffffffffffffffffffffffff16021790555082600481905550816000806101000a81548160ff02191690831515021790555080600660006101000a81548173ffffffffffffffffffffffffffffffffffffffff021916908373ffffffffffffffffffffffffffffffffffffffff16021790555050505050610e12806101226000396000f3fe608060405234801561001057600080fd5b50600436106100cf5760003560e01c8063856506741161008c578063d4f50f9811610066578063d4f50f9814610278578063da650ec6146102ed578063f8a8fd6d1461030f578063f9718fc81461038c576100cf565b8063856506741461019e5780639d76ea581461020c5780639f07041b14610256576100cf565b80633197cbb6146100d45780633e85283e146100f25780633f07b81f14610110578063422356ee1461012e57806363a6393e1461015e57806378e9792514610180575b600080fd5b6100dc610396565b6040518082815260200191505060405180910390f35b6100fa61039c565b6040518082815260200191505060405180910390f35b6101186103a2565b6040518082815260200191505060405180910390f35b61015c6004803603602081101561014457600080fd5b810190808035151590602001909291905050506103a8565b005b6101666109ac565b604051808215151515815260200191505060405180910390f35b6101886109be565b6040518082815260200191505060405180910390f35b6101ca600480360360208110156101b457600080fd5b81019080803590602001909291905050506109c4565b604051808273ffffffffffffffffffffffffffffffffffffffff1673ffffffffffffffffffffffffffffffffffffffff16815260200191505060405180910390f35b610214610a00565b604051808273ffffffffffffffffffffffffffffffffffffffff1673ffffffffffffffffffffffffffffffffffffffff16815260200191505060405180910390f35b61025e610a26565b604051808215151515815260200191505060405180910390f35b6102ba6004803603602081101561028e57600080fd5b81019080803573ffffffffffffffffffffffffffffffffffffffff169060200190929190505050610a43565b60405180851515151581526020018481526020018381526020018215151515815260200194505050505060405180910390f35b6102f5610b7e565b604051808215151515815260200191505060405180910390f35b610317610b9f565b604051808373ffffffffffffffffffffffffffffffffffffffff1673ffffffffffffffffffffffffffffffffffffffff1681526020018273ffffffffffffffffffffffffffffffffffffffff1673ffffffffffffffffffffffffffffffffffffffff1681526020019250505060405180910390f35b610394610baf565b005b60045481565b60015481565b60025481565b6004544211156103b757600080fd5b6000809054906101000a900460ff166104b1576000600660009054906101000a900473ffffffffffffffffffffffffffffffffffffffff1673ffffffffffffffffffffffffffffffffffffffff1663264d7797336040518263ffffffff1660e01b8152600401808273ffffffffffffffffffffffffffffffffffffffff1673ffffffffffffffffffffffffffffffffffffffff16815260200191505060206040518083038186803b15801561046b57600080fd5b505afa15801561047f573d6000803e3d6000fd5b505050506040513d602081101561049557600080fd5b8101908080519060200190929190505050116104b057600080fd5b5b6000600560009054906101000a900473ffffffffffffffffffffffffffffffffffffffff1673ffffffffffffffffffffffffffffffffffffffff166370a08231336040518263ffffffff1660e01b8152600401808273ffffffffffffffffffffffffffffffffffffffff1673ffffffffffffffffffffffffffffffffffffffff16815260200191505060206040518083038186803b15801561055257600080fd5b505afa158015610566573d6000803e3d6000fd5b505050506040513d602081101561057c57600080fd5b81019080805190602001909291905050509050600560009054906101000a900473ffffffffffffffffffffffffffffffffffffffff1673ffffffffffffffffffffffffffffffffffffffff1663095ea7b330836040518363ffffffff1660e01b8152600401808373ffffffffffffffffffffffffffffffffffffffff1673ffffffffffffffffffffffffffffffffffffffff16815260200182815260200192505050602060405180830381600087803b15801561063857600080fd5b505af115801561064c573d6000803e3d6000fd5b505050506040513d602081101561066257600080fd5b810190808051906020019092919050505050600560009054906101000a900473ffffffffffffffffffffffffffffffffffffffff1673ffffffffffffffffffffffffffffffffffffffff166323b872dd3330846040518463ffffffff1660e01b8152600401808473ffffffffffffffffffffffffffffffffffffffff1673ffffffffffffffffffffffffffffffffffffffff1681526020018373ffffffffffffffffffffffffffffffffffffffff1673ffffffffffffffffffffffffffffffffffffffff1681526020018281526020019350505050602060405180830381600087803b15801561075157600080fd5b505af1158015610765573d6000803e3d6000fd5b505050506040513d602081101561077b57600080fd5b81019080805190602001909291905050505081600760003373ffffffffffffffffffffffffffffffffffffffff1673ffffffffffffffffffffffffffffffffffffffff16815260200190815260200160002060000160006101000a81548160ff0219169083151502179055506001600760003373ffffffffffffffffffffffffffffffffffffffff1673ffffffffffffffffffffffffffffffffffffffff16815260200190815260200160002060000160016101000a81548160ff02191690831515021790555042600760003373ffffffffffffffffffffffffffffffffffffffff1673ffffffffffffffffffffffffffffffffffffffff1681526020019081526020016000206001018190555080600760003373ffffffffffffffffffffffffffffffffffffffff1673ffffffffffffffffffffffffffffffffffffffff16815260200190815260200160002060020181905550600160083390806001815401808255809150509060018203906000526020600020016000909192909190916101000a81548173ffffffffffffffffffffffffffffffffffffffff021916908373ffffffffffffffffffffffffffffffffffffffff160217905550505081156109545780600160008282540192505081905550610965565b806002600082825401925050819055505b7f296812b81fc805da7ef5aa29121ed02d04deb1d8bc1add43fc4c61b2009ccb40828260405180831515151581526020018281526020019250505060405180910390a15050565b6000809054906101000a900460ff1681565b60035481565b600881815481106109d157fe5b906000526020600020016000915054906101000a900473ffffffffffffffffffffffffffffffffffffffff1681565b600560009054906101000a900473ffffffffffffffffffffffffffffffffffffffff1681565b6000600454421115610a3b5760009050610a40565b600190505b90565b600080600080600760008673ffffffffffffffffffffffffffffffffffffffff1673ffffffffffffffffffffffffffffffffffffffff16815260200190815260200160002060000160009054906101000a900460ff16600760008773ffffffffffffffffffffffffffffffffffffffff1673ffffffffffffffffffffffffffffffffffffffff16815260200190815260200160002060010154600760008873ffffffffffffffffffffffffffffffffffffffff1673ffffffffffffffffffffffffffffffffffffffff16815260200190815260200160002060020154600760008973ffffffffffffffffffffffffffffffffffffffff1673ffffffffffffffffffffffffffffffffffffffff16815260200190815260200160002060000160019054906101000a900460ff1693509350935093509193509193565b600080600254600154031115610b975760019050610b9c565b600090505b90565b6000803330819150915091509091565b6004544211610bbd57600080fd5b6000600760003373ffffffffffffffffffffffffffffffffffffffff1673ffffffffffffffffffffffffffffffffffffffff16815260200190815260200160002060020154118015610c5c5750600760003373ffffffffffffffffffffffffffffffffffffffff1673ffffffffffffffffffffffffffffffffffffffff16815260200190815260200160002060030160009054906101000a900460ff16155b15610de457600560009054906101000a900473ffffffffffffffffffffffffffffffffffffffff1673ffffffffffffffffffffffffffffffffffffffff1663a9059cbb33600760003373ffffffffffffffffffffffffffffffffffffffff1673ffffffffffffffffffffffffffffffffffffffff168152602001908152602001600020600201546040518363ffffffff1660e01b8152600401808373ffffffffffffffffffffffffffffffffffffffff1673ffffffffffffffffffffffffffffffffffffffff16815260200182815260200192505050602060405180830381600087803b158015610d4c57600080fd5b505af1158015610d60573d6000803e3d6000fd5b505050506040513d6020811015610d7657600080fd5b8101908080519060200190929190505050506001600760003373ffffffffffffffffffffffffffffffffffffffff1673ffffffffffffffffffffffffffffffffffffffff16815260200190815260200160002060030160006101000a81548160ff0219169083151502179055505b56fea165627a7a7230582076be005e1091d1f08ff68caffd1d3f509f881fe8b0cff9af00d90e6d0644525d0029",
  "source": "pragma solidity >=0.4.22 <0.6.0;\n\nimport \"./DAICOcrowdsale.sol\";\nimport \"./DAICOtoken.sol\";\n\ncontract Voting {\n    struct Vote {\n        bool vote;\n        bool didVote;\n        uint256 dateTime;\n        uint256 tokensAmount;\n        bool tokensReturned;\n    }\n    \n    bool public raiseTapVoting;\n    \n    uint256 public positiveVotes = 0;\n    uint256 public negativeVotes = 0;\n    \n    uint256 public startTime = now;\n    uint256 public endTime;\n    \n    address public tokenAddress;\n    address payable private crowdsaleAddress;\n    \n    mapping(address => Vote) votes;\n    address[] public allVoters;\n\n    event VoteAdded(bool _vote, uint256 _tokens);\n    \n    constructor(address _tokenAddress, uint256 _endTime, bool _votingType, address payable _crowdsale) public {\n        tokenAddress = _tokenAddress;\n        endTime = _endTime;\n        raiseTapVoting = _votingType;\n        crowdsaleAddress = _crowdsale;\n    }\n    \n    modifier votingInProgress {\n        require(now <= endTime);\n        _;\n    }\n    \n    modifier votingEnded {\n        require(now > endTime);\n        _;\n    }\n    \n    modifier canVote {\n        if(!raiseTapVoting){\n            require(DAICOcrowdsale(crowdsaleAddress).tokensBought(msg.sender) > 0);\n        }\n        _;\n    }\n    \n    function getVoter(address voterAddress) public view returns(bool, uint256, uint256, bool){\n        return (votes[voterAddress].vote, votes[voterAddress].dateTime, votes[voterAddress].tokensAmount, votes[voterAddress].didVote);\n    }\n    \n    function test() public view returns(address, address){\n        return(msg.sender, address(this));\n    }\n    \n    function addVote(bool vote) public votingInProgress canVote {\n        uint256 tokensBalance = ERC20(tokenAddress).balanceOf(msg.sender);\n        ERC20(tokenAddress).approve(address(this), tokensBalance);\n        ERC20(tokenAddress).transferFrom(msg.sender, address(this), tokensBalance);\n        //uint256 tokensBalance = 100000000000;\n        votes[msg.sender].vote = vote;\n        votes[msg.sender].didVote = true;\n        votes[msg.sender].dateTime = now;\n        votes[msg.sender].tokensAmount = tokensBalance;\n            \n        allVoters.push(msg.sender) -1;\n            \n        if(vote){\n            positiveVotes += tokensBalance;\n        } else {\n            negativeVotes += tokensBalance;\n        }\n\n        emit VoteAdded(vote, tokensBalance);\n    }\n    \n    function returnTokens() public votingEnded {\n        if(votes[msg.sender].tokensAmount > 0 && !votes[msg.sender].tokensReturned){\n            ERC20(tokenAddress).transfer(msg.sender, votes[msg.sender].tokensAmount); \n            votes[msg.sender].tokensReturned = true;\n        }\n    }\n    \n    function getVotingResults() public view returns (bool) {\n        if(positiveVotes - negativeVotes > 0) {\n            return true;\n        }\n        return false;\n    }\n    \n    function votingIsActive() public view returns(bool) {\n        if(now > endTime){\n            return false;\n        }\n        return true;\n    }\n}",
  "sourcePath": "/Users/borutkitak/Documents/Projects/DAICO_mag/contracts/Voting.sol",
  "compiler": {
    "name": "solc",
    "version": "0.5.8+commit.23d335f2.Emscripten.clang"
  },
  "schemaVersion": "3.0.11",
  "updatedAt": "2019-08-31T12:52:46.059Z",
  "devdoc": {
    "methods": {}
  },
  "userdoc": {
    "methods": {}
  }
}